:020000040800F2
:100000009806002031020008930500088B050008BF
:100010008F05000885050008F106000800000000B3
:10002000000000000000000000000000970500082C
:1000300089050008000000009505000885060008F5
:100040004B0200084B0200084B0200084B0200085C
:100050004B0200084B0200084B0200084B0200084C
:100060004B0200084B0200084B0200084B0200083C
:100070004B0200084B0200084B0200084B0200082C
:100080004B0200084B0200084B0200084B0200081C
:100090004B0200084B0200084B0200084B0200080C
:1000A0004B0200084B0200084B0200084B020008FC
:1000B0004B0200084B0200084B0200084B020008EC
:1000C0004B0200084B0200084B0200084B020008DC
:1000D0004B0200084B0200084B0200084B020008CC
:1000E0004B0200084B0200084B0200084B020008BC
:1000F0004B0200084B0200084B0200084B020008AC
:100100004B0200084B0200084B0200084B0200089B
:100110004B0200084B0200084B0200084B0200088B
:100120004B0200084B0200084B0200084B0200087B
:100130004B0200084B0200084B0200084B0200086B
:100140004B0200084B0200084B0200084B0200085B
:100150004B0200084B0200084B0200084B0200084B
:100160004B0200084B0200084B0200084B0200083B
:100170004B0200084B0200084B0200084B0200082B
:100180004B0200084B02000800F002F800F041F8B2
:100190000AA090E8000C82448344AAF10107DA45E2
:1001A00001D100F036F8AFF2090EBAE80F0013F0F3
:1001B000010F18BFFB1A43F001031847980900000C
:1001C000B8090000103A24BF78C878C1FAD852079D
:1001D00024BF30C830C144BF04680C6070470000C1
:1001E0000023002400250026103A28BF78C1FBD840
:1001F000520728BF30C148BF0B607047732900F019
:100200003881002070471FB500F09EFC1FBD10B55F
:1002100010BD00F085F91146FFF7F5FF00F006FB71
:1002200000F0A3F903B4FFF7F2FF03BC00F062FA99
:100230000948804709480047FEE7FEE7FEE7FEE77A
:10024000FEE7FEE7FEE7FEE7FEE7FEE704480549B6
:10025000054A064B7047000089060008890100081E
:1002600098000020980600209802002098020020A4
:10027000704700000FB4044910B503AA029800F0BB
:10028000FDF810BC5DF814FB0C0000202DE9F041D6
:100290000E460446002020622046E168884730B3BD
:1002A000252805D0D4E901219047206A401CF2E7B7
:1002B000E168204600278847050018D0A5F14100D5
:1002C000192802D820354FF40067324629462046C7
:1002D0002760FFF793FF40B1012804D0F61D26F0F8
:1002E00007060836D8E7361DD6E72846DAE7206A3B
:1002F000BDE8F08170B50C460546012A05D0287886
:10030000800600D5EA69002302E0012305E05B1CBA
:10031000934202D2E05C0028F9D1A869E618C01A1D
:10032000A861286A184428622846AFF3008004E0D8
:10033000D5E9012114F8010B9047B442F8D32846BF
:10034000AFF3008070BD10B5431C02E010F8011B34
:1003500071B18107FAD14FF0013202C88C1A8C4377
:1003600014EAC211F9D0C01A0A0603D0C01E10BD8B
:10037000C01A10BD0A0401D0801E10BD0902FCD0B5
:10038000401E10BD4FF000020429C0F0128010F092
:10039000030C00F08780CCF1040CBCF1020F18BFF5
:1003A00000F8012BA8BF20F8022BA1EB0C0100F0F4
:1003B00079B85FEAC17C24BF00F8012B00F8012B5B
:1003C00048BF00F8012B70474FF0013C50F8042B58
:1003D00051F8043B9A4221D1A2EB0C03934313EA58
:1003E000CC1317D150F8042B51F8043B9A4215D185
:1003F000A2EB0C03934313EACC130BD150F8042B5C
:1004000051F8043B9A4209D1A2EB0C03934313EA3F
:10041000CC13DBD04FF00000704700BFD01A01BAF8
:10042000B1FA81F101F0180122FA01F0CB40C1F1DB
:100430002001DBB2C0B2C01A2CFA01F3D11A9143E9
:1004400011EAC311E6D1704770477047704710B585
:10045000436913B1AFF3008001E0FFF74BFF0120C8
:1004600010BD127800F124010A7000224A700122A6
:10047000EDE711684FF0FF32E9E70000074B70B578
:100480000D467B4400F039F80446284600F034F964
:1004900010B14FF0FF3070BD204670BD7B020000F0
:1004A0004FF0000200B5134694469646203922BF0D
:1004B000A0E80C50A0E80C50B1F12001BFF4F7AF58
:1004C000090728BFA0E80C5048BF0CC05DF804EB3A
:1004D000890028BF40F8042B08BF704748BF20F8A8
:1004E000022B11F0804F18BF00F8012B704700005D
:1004F00001694A1C02610878704700B58FB0CDE9E8
:1005000001310021059105497944CDE903101146D7
:100510006846FFF7BBFE0FB000BD0000E5FFFFFF20
:10052000754600F02BF8AE4605006946534620F0AC
:100530000700854618B020B5FFF788FEBDE82040CB
:100540004FF000064FF000074FF000084FF0000B8F
:1005500021F00701AC46ACE8C009ACE8C009ACE842
:10056000C009ACE8C0098D46704710B50446AFF32A
:1005700000802046BDE81040FFF754BE0048704799
:100580003800002000BFFEE7704700BFFEE700BF55
:10059000FEE77047704770470CB50020019000904F
:1005A0003448006840F480303249086000BF314868
:1005B000006800F4003000900198401C0190009801
:1005C00018B90198B0F5A04FF1D12A48006800F49D
:1005D000003010B10120009001E000200090009850
:1005E000012846D123484030006840F0805021491E
:1005F000403108602048006840F440401E490860CF
:100600001C48083000681B4908310860084600682B
:1006100040F4004008600846006840F4A0500860BC
:100620001648091F0860081F006840F08070091F05
:10063000086000BF0F48006800F000700028F9D083
:1006400040F205700E4908600A480830006820F042
:1006500003000849083108600846006840F00200BD
:10066000086000BF03480830006800F00C0008284C
:10067000F8D10CBD0038024000700040195440070A
:10068000003C02407047000010B51548006840F477
:100690007000134908601348006840F001001149D8
:1006A000086000200F49083108600E4800680E49B4
:1006B00008400C4908600D48091D0860081F0068C3
:1006C00020F48020091F0860002006490C310860D2
:1006D000FFF762FF4FF0006001498039086010BDEC
:1006E00088ED00E000380240FFFFF6FE10300024E5
:1006F00000BFFEE700BFFEE701464FF0FF30704746
:1007000000BF044A128802F08002002AF9D0014B8F
:1007100098807047001001401448006840F00100C4
:10072000124908601248006820F003001049086070
:100730000846006808600846C06820F00300C860EA
:100740000A48006840F0100008490860094800683D
:1007500020F0300007490860084600680860084635
:10076000C06820F03000C860704700003038024098
:1007700000000240001002402948006840F00400D8
:10078000274908602748006820F470602549086000
:100790000846006840F4A0600860081D006820F06A
:1007A0003000091D08601F480C30006820F470609C
:1007B0001C490C310860081F006820F47060091F94
:1007C000086018481430006840F0300015491431B2
:1007D00008601348006840F00100114908601248A1
:1007E000006820F47040104908600846006840F432
:1007F000A04008600846406820F0C00048600846F5
:10080000C06820F47040C8600846806820F47040DA
:1008100088600846406940F0C000486170470000A9
:1008200030380240000802400000024010B5FFF7D7
:10083000A3FFFFF771FF4FF4E13000F0EBF800F099
:1008400003F8002010BD0000A4E000245248FFF788
:100850007AFD054629465048FFF794FD00BF00F099
:1008600059F94D490855085D00F062F9641C601E95
:100870004949085C0A28F2D10021A01E464A1154B9
:10088000114646A0FFF7F6FC48A14348FFF79CFD40
:1008900030B94948408B40F04000474948830AE05E
:1008A00046A13D48FFF790FD28B94348008B40F032
:1008B00040004149088344A13748FFF785FD30B91E
:1008C0004448008840F01000424908800CE042A1F2
:1008D0003148FFF779FD38B93E48801E008840F066
:1008E00010003C49891E08803EA12B48FFF76CFD93
:1008F00030B93848008840F02000364908800CE0C4
:100900002EA12548FFF760FD38B93248801E0088C7
:1009100040F020002F49891E088035A11E48FFF7AE
:1009200053FD30B92448408B40F080002249488371
:100930000AE022A11848FFF747FD28B91E48008B9E
:1009400040F080001C4908832CA11348FFF73CFDB0
:1009500060B91948408B40F0C000174948831D48D2
:10096000008840F030001B49088012E026A10A48A8
:10097000FFF72AFD68B91048008B40F0C0000E490F
:1009800008831448801E008840F030001149891EF9
:10099000088000BF59E70000240000202A2A2A2AE4
:1009A0002A2A2A2A2A2A2573000000006F70656E01
:1009B0005F6C65643100000000000240636C6F737F
:1009C000655F6C65643100006F70656E5F6C6564B7
:1009D000320000001A080240636C6F73655F6C653B
:1009E000643200006F70656E5F6C656433000000F8
:1009F0006F70656E5F6C6564340000006F70656ECB
:100A00005F6C656400000000636C6F73655F6C650C
:100A10006400000010B50146DFED390AB0EE600A4F
:100A200000200022374B1B6843F00103354C236044
:100A3000354B1B6823F47013334C236023461B682B
:100A400043F42013236023465B6A03F47F642E4B38
:100A50005C625B6A43F4EE642B4B5C625B6823F47C
:100A60000073294C63602346DB6823F47013E36052
:100A700023469B6823F44023A360224B14331B6856
:100A800043F010031F4C14342360204B9B8903F068
:100A90000C031E4CA38123469B8943F00C03A381C6
:100AA00023469B8943F40053A38123461B8A23F4E6
:100AB000405323820B0100EE903AF8EE600A9FED5E
:100AC000141AC1EE201AB0EE610AFCEEC00A10EE54
:100AD000903A98B200EE900AF8EE600A30EE601A92
:100AE000F3EE001AF6EE000A41EE210AFCEEE00AEF
:100AF00010EE903A9AB242EA0013238110BD000032
:100B000000000000303802400000024000100140A8
:100B1000A037A04C00BF0548008800F02000002846
:100B2000F9D002488088C0B2704700000010014030
:100B300000BF0449098801F040010029F9D00149AA
:100B400088807047001001404FF04070E1EE100ABD
:100B500070470000740B0008000000201000000027
:100B6000C4010008840B0008100000208806000063
:100B7000E00100080000000000000000000000008C
:040B80000000000071
:040000050800018965
:00000001FF
