:020000040800F2
:1000000060080020310200081908000811080008E3
:1000100015080008A3060008E50B00080000000012
:100020000000000000000000000000001D080008A3
:10003000D5060008000000001B0800080D09000894
:100040004B0200084B0200084B0200084B0200085C
:100050004B0200084B020008D906000819070008E7
:100060004507000889070008CD0700084B02000873
:100070004B0200084B0200084B0200084B0200082C
:100080004B0200084B0200084B0200084B0200081C
:100090004B0200084B0200084B0200084B0200080C
:1000A0004B020008910900084B0200084B020008AF
:1000B000BD090008010A00084B0200084B020008B5
:1000C0004B0200084B0200084B0200084B020008DC
:1000D0004B0200088D0B00084B0200084B02000881
:1000E0004B0200084B0200084B0200084B020008BC
:1000F0004B0200084B0200084B0200084B020008AC
:100100004B0200084B0200084B0200084B0200089B
:100110004B0200084B0200084B020008D90A0008F5
:100120004B0200084B0200084B0200084B0200087B
:100130004B0200084B0200084B0200084B0200086B
:100140004B0200084B0200084B0200084B0200085B
:100150004B0200084B020008A90600084B020008E9
:100160004B0200084B0200084B0200084B0200083B
:100170004B0200084B0200084B0200084B0200082B
:100180004B0200084B02000800F002F800F041F8B2
:100190000AA090E8000C82448344AAF10107DA45E2
:1001A00001D100F036F8AFF2090EBAE80F0013F0F3
:1001B000010F18BFFB1A43F001031847BC0D0000E4
:1001C000DC0D0000103A24BF78C878C1FAD8520775
:1001D00024BF30C830C144BF04680C6070470000C1
:1001E0000023002400250026103A28BF78C1FBD840
:1001F000520728BF30C148BF0B607047642900F028
:100200007380002070471FB500F074FE1FBD10B54D
:1002100010BD00F00CFA1146FFF7F5FF00F0BCFD31
:1002200000F02AFA03B4FFF7F2FF03BC00F032FA41
:100230000948804709480047FEE7FEE7FEE7FEE77A
:10024000FEE7FEE7FEE7FEE7FEE7FEE704480549B6
:10025000054A064B7047000029090008890100087B
:10026000600200206008002060040020600400207C
:100270000FB41CB5074B06AA7B446946009005984D
:1002800000F0BDF90020694600F0CCF91CBC5DF817
:1002900014FB0000A903000070B5044685690068DE
:1002A000C10601D5302600E02026C00707D070BD6A
:1002B000D4E9012130469047206A401C20626D1E1F
:1002C000F6D570BD70B5044685690078C00707D1C2
:1002D00070BDD4E9012120209047206A401C206293
:1002E0006D1EF6D570BD00002DE9F04106460024D4
:1002F00010687529314616A510D0AFF3008000288C
:1003000002DA404213A507E031688A0701D512A539
:1003100002E0490704D511A5012401E0AFF30080F4
:1003200000210A2206F1240709E0B0FBF2FCB0FB31
:10033000F2F302FB1C00303078541846491C0028A8
:10034000F3D123462A463046BDE8F04100F0F8B824
:10035000000000002D0000002B0000002000000025
:100360002DE9F05F894604464FF0000ADFF824B11A
:10037000FB44C0F820A02046E168884700287DD0D3
:10038000252806D0D4E901219047206A401C20622C
:10039000F1E700255F462046E168884720280646A9
:1003A00007DB312E05D2B81910F8200C08B105432F
:1003B000F1E7A80701D525F00405C4F81CA0002723
:1003C000C4F818A02A2E09D0304600F00DFC38B32E
:1003D00004EB8708303EC8F8186019E059F8041B90
:1003E000204604EB87029161E1688847012F0646A9
:1003F00018D1E069002820DA25F020051DE0D8F8A2
:10040000180000EB800006EB40003038C8F81800F8
:100410002046E1688847064600F0E6FB0028EED15A
:10042000012F0AD02E2E08D12046E16888477F1C74
:100430000646022F45F02005C4DBA069002803DA38
:10044000404245F00105A061E80701D025F0100504
:10045000A6B1A6F14100192802D8203645F400655E
:100460004A463146204625604D46FFF7C7FE60B13B
:10047000012807D0ED1D25F0070000E007E000F19E
:10048000080978E705F1040975E730467AE7206A3C
:10049000BDE8F09FF00B000010B5431C02E010F81F
:1004A000011B71B18107FAD14FF0013202C88C1AD9
:1004B0008C4314EAC211F9D0C01A0A0603D0C01E38
:1004C00010BDC01A10BD0A0401D0801E10BD090263
:1004D000FCD0401E10BD10B5203AC0F00B80B1E832
:1004E0001850203AA0E81850B1E81850A0E8185069
:1004F000BFF4F5AF5FEA027C24BFB1E81850A0E872
:10050000185044BF18C918C0BDE810405FEA827C8B
:1005100024BF51F8043B40F8043B08BF7047D207A2
:1005200028BF31F8023B48BF11F8012B28BF20F843
:10053000023B48BF00F8012B704770477047704777
:100540002DE9F0470D4699469246044600F12408ED
:100550000168880604D5E06921F01001216000E0FF
:100560000120A84201DD471B00E00027A1697A199C
:1005700002EB0900081AA0612078C00602D42046C8
:10058000FFF78AFE002608E0D4E901211AF80600E8
:100590009047206A401C761C20624E45F4DB207890
:1005A000C0060AD52046FFF777FE06E0D4E9012110
:1005B00030209047206A401C2062381EA7F10107B6
:1005C000F4DC07E0D4E9012118F805009047206A1F
:1005D000401C2062281EA5F10105F3DC2046FFF730
:1005E00071FE2078000602D50220BDE8F0870120C8
:1005F000FBE7000001694A1C02610878704700B5FA
:100600008FB0CDE901310021059105497944CDE94B
:10061000031011466846FFF7A3FE0FB000BD0000AF
:10062000E5FFFFFF0A6802F8010B0A607047754694
:1006300000F02CF8AE4605006946534620F007004E
:10064000854618B020B5FFF701FEBDE820404FF009
:1006500000064FF000074FF000084FF0000B21F0AC
:100660000701AC46ACE8C009ACE8C009ACE8C00979
:10067000ACE8C0098D46704710B50446AFF3008062
:100680002046BDE81040FFF7CDBD00000048704790
:10069000FC01002001491820ABBEFEE72600020045
:1006A000704700BFFEE700000848006800F00060E7
:1006B00050B106480830006840F000600349083136
:1006C000086001200249086070470000046402408D
:1006D000400000207047000010B50D48006800F091
:1006E0000100A0B14FF47A7000F04FFB0948006997
:1006F00000F0010058B10748406980F0400005490A
:1007000048610348006840F001000149086010BDDD
:10071000143C0140000002400848006800F08000DE
:1007200050B10648006820F0800004490860044881
:100730000068401C0249086070470000143C0140FA
:100740000C00002010B50D48006800F00400A0B1B6
:100750004FF47A7000F019FB0948006900F00400BA
:1007600058B10848406980F0800006494861034854
:10077000006840F004000149086010BD143C0140CD
:10078000001002400000024010B50D48006800F063
:100790000800A0B14FF47A7000F0F7FA0948006938
:1007A00000F0080058B10848006880F010000649C1
:1007B00008600348006840F008000149086010BD67
:1007C000143C0140001002401408024010B50D48CE
:1007D000006800F01000A0B14FF47A7000F0D5FA74
:1007E0000948006900F0100058B10848006880F01E
:1007F0002000064908600348006840F010000149E5
:10080000086010BD143C0140001002401408024072
:1008100000BFFEE700BFFEE770477047704700006B
:100820000CB50020019000903448006840F48030FE
:100830003249086000BF3148006800F40030009081
:100840000198401C0190009818B90198B0F5A04F8C
:10085000F1D12A48006800F4003010B10120009066
:1008600001E0002000900098012846D12348403044
:10087000006840F0805021494031086020480068FD
:1008800040F440401E4908601C48083000681B497D
:10089000083108600846006840F4004008600846D7
:1008A000006840F4A05008601648091F0860081F3F
:1008B000006840F08070091F086000BF0F480068A2
:1008C00000F000700028F9D040F205700E49086071
:1008D0000A480830006820F0030008490831086021
:1008E0000846006840F00200086000BF0348083076
:1008F000006800F00C000828F8D10CBD0038024058
:100900000070004019544007003C024000204FF0A6
:10091000E02188610348006880F010000149086008
:10092000704700001408024010B51548006840F4F4
:100930007000134908601348006840F00100114935
:10094000086000200F49083108600E4800680E4911
:1009500008400C4908600D48091D0860081F006820
:1009600020F48020091F0860002006490C3108602F
:10097000FFF756FF4FF0006001498039086010BD55
:1009800088ED00E000380240FFFFF6FE1030002442
:100990000848008800F0010058B10648008820F09F
:1009A0000100044908800448406980F08000024941
:1009B0004861704710440140000002404FF0804001
:1009C000008A00F40070C0B14FF08040008A20F02F
:1009D00002004FF0804108820846008A20F400702F
:1009E00008820846406B40F2E731884205D103484F
:1009F000008840F010000149088070471A08024042
:100A00003248008800F0010000285ED030480068BD
:100A1000B0F57A7F1DD22F480068D0B92B480088E6
:100A200020F001002949088029480068401E274914
:100A30002431086026480068401C254908600020D1
:100A40002449086022480068B0F57A7F01D101206E
:100A500008601F480068B0F57A7F1CD81D48006800
:100A6000012818D11948008820F001001749088092
:100A700017480068401E1549243108601448006872
:100A8000401E1349086001201249086010480068A0
:100A900008B9002008600D480830008820F0FF00E9
:100AA0000A49083108800846008840F06000088044
:100AB00006481030008820F00F00044910310880EB
:100AC0000846008840F0010008807047100400408C
:100AD000380000203C00002008B52248008800F0C3
:100AE000010000283CD01F48008820F001001D496B
:100AF00008801D48006800901C4803681C481DA120
:100B000002682148FFF7B4FB1F4800F0E1F91648DE
:100B10000068401C14490860084600683C280DD352
:100B2000084600683C21B0FBF1F201FB12000E49BF
:100B300008600E480068401C0C4908600B480068BB
:100B40003C280DD3094800683C21B0FBF1F201FBC1
:100B500012000649086006480068401C0449086005
:100B600008BD000010140040300000202C000020C0
:100B700028000020253032643A253032643A25308E
:100B800032640D0A000000006C00002000B512481D
:100B900080881249124A1268885411480068401C23
:100BA0000F49086008460068401E0C49085C0A2886
:100BB0000BD1084600F08CF9002109480068801E1E
:100BC000064A11540020064908600348008820F0B6
:100BD00020000149088000BD0010014044000020B1
:100BE0000800002000BFFEE730380A2801D20120AB
:100BF00070470020704700002DE9F05F04460D4665
:100C000016464FF4E13000F0E3F85648006840F42F
:100C10008000544908605448006820F0010052499F
:100C2000086000BF5048006800F001000028F9D1BA
:100C30004D48006840F000604B4908600846006875
:100C400040F4803008600846006840F48060086026
:100C50000846006840F040000860434814300068CF
:100C600020F004004049143108603F48001D00682E
:100C700020F0FF003C49091D086008460660001D81
:100C80000560001D04604620052201274FF0020C7C
:100C90001346C3F1070ABAF1040F02D94FF0040A50
:100CA00001E0C3F1070AD14603F1040ABAF1070FC4
:100CB00002D24FF0000A01E0A3F1030AD0464FF040
:100CC000010A0AFA09FAAAF1010A0AEA070A0AFA63
:100CD00008FA4FF0010B0BFA08FBABF1010B0BEA22
:100CE0000C0B4AEA0B0100BF002807DA0A07170EAF
:100CF0001E4A00F00F031B1FD75403E00A07130E10
:100D00001B4A135400BF1848006840F010001649F1
:100D10000860462000F01F02012191404209920024
:100D200002F1E022C2F8001100BF0F48006840F055
:100D300001000D4908600F48808A40F080000D498D
:100D4000888200BF0C4800680028FBD000200A49B8
:100D500008600548006840F0010003490860BDE8EC
:100D6000F09F000030380240B864024018ED00E007
:100D700000E400E000100140400000202A21484328
:100D800000E0401E0028FCD170472A21484300E0C3
:100D9000401E0028FCD170479AB011E06422094936
:100DA00001A8FFF798FB01A8FFF776FB84B2224663
:100DB000054901A8FFF720FF0448FFF7DFFF00BF48
:100DC000ECE70000000F00080410014020A107001C
:100DD00010B50146DFED390AB0EE600A00200022AE
:100DE000374B1B6843F00103354C2360354B1B68C0
:100DF00023F47013334C236023461B6843F4201301
:100E0000236023465B6A03F47F642E4B5C625B6A5B
:100E100043F4EE642B4B5C625B6823F40073294C53
:100E200063602346DB6823F47013E36023469B680A
:100E300023F44023A360224B14331B6843F01003B8
:100E40001F4C14342360204B9B8903F00C031E4C71
:100E5000A38123469B8943F00C03A38123469B89EE
:100E600043F40053A38123461B8A23F44053238277
:100E70000B0100EE903AF8EE600A9FED141AC1EEF5
:100E8000201AB0EE610AFCEEC00A10EE903A98B259
:100E900000EE900AF8EE600A30EE601AF3EE001AE7
:100EA000F6EE000A41EE210AFCEEE00A10EE903A5E
:100EB0009AB242EA0013238110BD00000000000036
:100EC000303802400000024000100140A037A04C22
:100ED00000BF00BF0649098801F040010029F9D090
:100EE0000178034A9180401C01780029F1D17047B4
:100EF000001001404FF04070E1EE100A7047000012
:100F000048454C4C4F20444D413B00000000000040
:100F100000000000000000000000000000000000D1
:100F200000000000000000000000000000000000C1
:100F300000000000000000000000000000000000B1
:100F400000000000000000000000000000000000A1
:100F50000000000000000000000000000000000091
:100F60000000000004000008000000000000000273
:100F70000001000010000000980F00080000002091
:100F800044000000C4010008DC0F000844000020F9
:100F90001C080000E0010008000000000000000044
:100FA0000000000000000000000000000000000041
:100FB0000000000000000000000000000000000031
:100FC0000000000000000000000000000000000021
:0C0FD00001000000000000000000000014
:040000050800018965
:00000001FF
