:020000040800F2
:100000005008002031020008450700083D0700089D
:1000100041070008FF050008C909000800000000AA
:100020000000000000000000000000004907000878
:100030000306000800000000470700083908000810
:100040004B0200084B0200084B0200084B0200085C
:100050004B0200084B020008050600084506000890
:1000600071060008B5060008F90600084B020008F2
:100070004B0200084B0200084B0200084B0200082C
:100080004B0200084B0200084B0200084B0200081C
:100090004B0200084B0200084B0200084B0200080C
:1000A0004B0200084B0200084B0200084B020008FC
:1000B0004B0200084B0200084B0200084B020008EC
:1000C0004B0200084B0200084B0200084B020008DC
:1000D0004B020008710900084B0200084B0200089F
:1000E0004B0200084B0200084B0200084B020008BC
:1000F0004B0200084B0200084B0200084B020008AC
:100100004B0200084B0200084B0200084B0200089B
:100110004B0200084B0200084B020008BD08000813
:100120004B0200084B0200084B0200084B0200087B
:100130004B0200084B0200084B0200084B0200086B
:100140004B0200084B0200084B0200084B0200085B
:100150004B0200084B0200084B0200084B0200084B
:100160004B0200084B0200084B0200084B0200083B
:100170004B0200084B0200084B0200084B0200082B
:100180004B0200084B02000800F002F800F041F8B2
:100190000AA090E8000C82448344AAF10107DA45E2
:1001A00001D100F036F8AFF2090EBAE80F0013F0F3
:1001B000010F18BFFB1A43F001031847BC0C0000E5
:1001C000DC0C0000103A24BF78C878C1FAD8520776
:1001D00024BF30C830C144BF04680C6070470000C1
:1001E0000023002400250026103A28BF78C1FBD840
:1001F000520728BF30C148BF0B607047642900F028
:100200007380002070471FB500F028FE1FBD10B599
:1002100010BD00F0BAF91146FFF7F5FF00F07EFCC3
:1002200000F0D8F903B4FFF7F2FF03BC00F0E0F9E7
:100230000948804709480047FEE7FEE7FEE7FEE77A
:10024000FEE7FEE7FEE7FEE7FEE7FEE704480549B6
:10025000054A064B70470000550800088901000850
:1002600050020020500800205004002050040020BC
:100270000FB41CB5074B06AA7B446946009005984D
:1002800000F06BF90020694600F07AF91CBC5DF8BB
:1002900014FB00000503000070B504468569006882
:1002A000C10601D5302600E02026C00707D070BD6A
:1002B000D4E9012130469047206A401C20626D1E1F
:1002C000F6D570BD70B5044685690078C00707D1C2
:1002D00070BDD4E9012120209047206A401C206293
:1002E0006D1EF6D570BD00002DE9F04106460024D4
:1002F00010687529314616A510D0AFF3008000288C
:1003000002DA404213A507E031688A0701D512A539
:1003100002E0490704D511A5012401E0AFF30080F4
:1003200000210A2206F1240709E0B0FBF2FCB0FB31
:10033000F2F302FB1C00303078541846491C0028A8
:10034000F3D123462A463046BDE8F04100F0A7B875
:10035000000000002D0000002B0000002000000025
:100360002DE9F05F894604464FF0000ADFF824B11A
:10037000FB44C0F820A02046E168884700287DD0D3
:10038000252806D0D4E901219047206A401C20622C
:10039000F1E700255F462046E168884720280646A9
:1003A00007DB312E05D2B81910F8200C08B105432F
:1003B000F1E7A80701D525F00405C4F81CA0002723
:1003C000C4F818A02A2E09D0304600F0FFFA38B33E
:1003D00004EB8708303EC8F8186019E059F8041B90
:1003E000204604EB87029161E1688847012F0646A9
:1003F00018D1E069002820DA25F020051DE0D8F8A2
:10040000180000EB800006EB40003038C8F81800F8
:100410002046E1688847064600F0D8FA0028EED169
:10042000012F0AD02E2E08D12046E16888477F1C74
:100430000646022F45F02005C4DBA069002803DA38
:10044000404245F00105A061E80701D025F0100504
:10045000A6B1A6F14100192802D8203645F400655E
:100460004A463146204625604D46FFF7C7FE60B13B
:10047000012807D0ED1D25F0070000E007E000F19E
:10048000080978E705F1040975E730467AE7206A3C
:10049000BDE8F09FF20A00007047704770472DE9F1
:1004A000F0470D4699469246044600F1240801683B
:1004B000880604D5E06921F01001216000E00120E8
:1004C000A84201DD471B00E00027A1697A1902EB71
:1004D0000900081AA0612078C00602D42046FFF760
:1004E000DBFE002608E0D4E901211AF80600904757
:1004F000206A401C761C20624E45F4DB2078C00642
:100500000AD52046FFF7C8FE06E0D4E901213020D5
:100510009047206A401C2062381EA7F10107F4DCD6
:1005200007E0D4E9012118F805009047206A401C33
:100530002062281EA5F10105F3DC2046FFF7C2FE6C
:100540002078000602D50220BDE8F0870120FBE7F5
:1005500001694A1C02610878704700B58FB0CDE987
:1005600001310021059105497944CDE90310114677
:100570006846FFF7F5FE0FB000BD0000E5FFFFFF86
:100580000A6802F8010B0A607047754600F02CF803
:10059000AE4605006946534620F00700854618B070
:1005A00020B5FFF753FEBDE820404FF000064FF0A6
:1005B00000074FF000084FF0000B21F00701AC4698
:1005C000ACE8C009ACE8C009ACE8C009ACE8C009B7
:1005D0008D46704710B50446AFF300802046BDE855
:1005E0001040FFF71FBE000000487047EC010020DC
:1005F00001491820ABBEFEE726000200704700BF8D
:10060000FEE7704710B50D48006800F00100A0B18A
:100610004FF47A7000F0E1F90948006900F0010038
:1006200058B10748406980F04000054948610348D7
:10063000006840F001000149086010BD143C014011
:10064000000002400848006800F0800050B10648F1
:10065000006820F080000449086004480068401CDD
:100660000249086070470000143C01400C00002063
:1006700010B50D48006800F00400A0B14FF47A7086
:1006800000F0ABF90948006900F0040058B10848CF
:10069000406980F08000064948610348006840F0E6
:1006A00004000149086010BD143C014000100240E4
:1006B0000000024010B50D48006800F00800A0B12D
:1006C0004FF47A7000F089F90948006900F00800D9
:1006D00058B10848006880F01000064908600348D7
:1006E000006840F008000149086010BD143C01405A
:1006F000001002401408024010B50D48006800F0D8
:100700001000A0B14FF47A7000F067F90948006951
:1007100000F0100058B10848006880F02000064939
:1007200008600348006840F010000149086010BDEF
:10073000143C0140001002401408024000BFFEE7D4
:1007400000BFFEE770477047704700000CB50020FF
:10075000019000903448006840F4803032490860CD
:1007600000BF3148006800F4003000900198401C40
:100770000190009818B90198B0F5A04FF1D12A481E
:10078000006800F4003010B10120009001E000206A
:1007900000900098012846D123484030006840F07E
:1007A00080502149403108602048006840F44040B2
:1007B0001E4908601C48083000681B490831086061
:1007C0000846006840F4004008600846006840F4AD
:1007D000A05008601648091F0860081F006840F014
:1007E0008070091F086000BF0F48006800F00070AB
:1007F0000028F9D040F205700E4908600A48083018
:10080000006820F0030008490831086008460068C5
:1008100040F00200086000BF03480830006800F0A4
:100820000C000828F8D10CBD0038024000700040D0
:1008300019544007003C024000204FF0E02188613D
:100840000348006880F0100001490860704700000C
:100850001408024010B51548006840F470001349B0
:1008600008601348006840F001001149086000204A
:100870000F49083108600E4800680E4908400C49CD
:1008800008600D48091D0860081F006820F48020DA
:10089000091F0860002006490C310860FFF756FF69
:1008A0004FF0006001498039086010BD88ED00E01C
:1008B00000380240FFFFF6FE1030002408B5224841
:1008C000008800F0010000283CD01F48008820F07C
:1008D00001001D4908801D48006800901C480368FD
:1008E0001C481DA102682148FFF7C2FC1F4800F008
:1008F000A3FA16480068401C1449086008460068BE
:100900003C280DD3084600683C21B0FBF1F201FB06
:1009100012000E4908600E480068401C0C4908602F
:100920000B4800683C280DD3094800683C21B0FB07
:10093000F1F201FB12000649086006480068401CFD
:100940000449086008BD0000101400403000002079
:100950002C00002028000020253032643A25303257
:10096000643A253032640D0A000000005C0000206B
:1009700000B5124880881249124A126888541148FA
:100980000068401C0F49086008460068401E0C497A
:10099000085C0A280BD1084600F04EFA00210948ED
:1009A0000068801E064A115400200649086003486A
:1009B000008820F020000149088000BD001001409F
:1009C000340000200800002000BFFEE730380A286D
:1009D00001D201207047002070472A21484300E0DF
:1009E000401E0028FCD170471C48006840F0010000
:1009F0001A4908601A48006820F003001849086086
:100A00000846006808600846C06820F00300C86017
:100A10001248006840F01000104908601148006852
:100A200020F0F0000F49086008460068086008469A
:100A3000C06820F0F000C8600848006840F010006E
:100A4000064908600748006820F4407005490860BE
:100A50000846C06820F47060C860704730380240B3
:100A600000000240001002402948006840F00400E5
:100A7000274908602748006820F47060254908600D
:100A80000846006840F4A0600860081D006820F077
:100A90003000091D08601F480C30006820F47060A9
:100AA0001C490C310860081F006820F47060091FA1
:100AB000086018481430006840F0300015491431BF
:100AC00008601348006840F00100114908601248AE
:100AD000006820F47040104908600846006840F43F
:100AE000A04008600846406820F0C0004860084602
:100AF000C06820F47040C8600846806820F47040E8
:100B000088600846406940F0C000486170470000B6
:100B1000303802400008024000000240FFF7A4FF06
:100B2000FFF762FF4FF4E13000F09CF84FF47A7069
:100B300000F002F800BFFEE7F0B502464348006847
:100B400040F020004149086042F2CF00404908804F
:100B50000020091F086002EB82000121C1EB400068
:100B60003B49091D08603A481438008840F00100EC
:100B7000374914390880081F008820F00100091F38
:100B80000880081F008840F00100091F088000202D
:100B90002F492839088008460088088008460088C0
:100BA00040F001000880052003462A4C21684FF6DA
:100BB000FF042140284C0C4344EA0321254C2160CA
:100BC00000BF00231C460146C1F10707042F01D9CD
:100BD000042701E0C1F107073E460F1D072F01D290
:100BE000002700E0CF1E3D460127B7407F1E1F4073
:100BF000AF404FF0010C0CFA05FCACF1010C0CEA13
:100C0000040C47EA0C07154807603720134B196896
:100C1000002808DA0B071D0E0E4B0C3300F00F04F2
:100C2000241F1D5503E00B071C0E0D4B1C5400BF69
:100C3000372000F01F030121994043099B0003F175
:100C4000E023C3F8001100BFF0BD000040380240AF
:100C5000281400400CED00E00000FA0524000020FC
:100C600000E400E02DE9F0470346DFED6B0AB0EE4B
:100C7000600A002200276948006840F001006749C7
:100C800008606748006820F47010654908600846ED
:100C9000006840F4201008600846406A00F47F6154
:100CA0005F484162406A40F4EE615D4841624068DD
:100CB00020F400705A4948600846C06820F470105B
:100CC000C8600846806820F440208860534814308B
:100CD000006840F010005149143108605148808983
:100CE00000F00C004F4988810846808940F00C00D4
:100CF00088810846808940F4005088810846008A2F
:100D000020F440500882180100EE900AF8EE600AC4
:100D10009FED451AC1EE201AB0EE610AFCEEC00A42
:100D200010EE900A82B200EE902AF8EE600A30EEE1
:100D3000601AF3EE001AF6EE000A41EE210AFCEE0C
:100D4000E00A10EE900A87B247EA021008814FF0DD
:100D5000000C05200446354D29684FF6FF05294053
:100D6000334D0D4345EA0421304D296000BF022474
:100D700025460146C1F10709B9F1040F02D94FF028
:100D8000040901E0C1F10709C84601F10409B9F1FC
:100D9000070F02D24FF0000901E0A1F103094E460E
:100DA0004FF0010909FA08F9A9F1010909EA040952
:100DB00009FA06F94FF0010A0AFA06FAAAF1010A3D
:100DC0000AEA050A49EA0A09CC46252061460028B4
:100DD00008DA0C07260E154C0C3400F00F052D1FF9
:100DE000665503E00C07250E124C255400BF252044
:100DF00000F01F040121A1404409A40004F1E024F3
:100E0000C4F8001100BF0748808940F02000054960
:100E10008881BDE8F0870000000000003038024003
:100E20000000024000100140A037A04C0CED00E093
:100E30000000FA0500E400E000BF00BF0649098891
:100E400001F040010029F9D00178034A9180401C4B
:100E500001780029F1D17047001001404FF0407037
:100E6000E1EE100A704704000008000000000000D6
:100E70000002000100001000980E00080000002091
:100E800034000000C4010008CC0E0008340000202B
:100E90001C080000E0010008000000000000000045
:100EA0000000000000000000000000000000000042
:100EB0000000000000000000000000000000000032
:0C0EC00000000000000000000000000026
:040000050800018965
:00000001FF
