:020000040800F2
:100000007006002089010008CB020008C302000826
:10001000C702000843020008D104000800000000E5
:10002000000000000000000000000000CF020008F7
:10003000C102000800000000CD020008B90300085A
:10004000A3010008A3010008A3010008A301000800
:10005000A3010008A3010008A3010008A3010008F0
:10006000A3010008A3010008A3010008A3010008E0
:1000700049020008A3010008A3010008A301000829
:10008000A301000899020008A3010008A3010008C9
:10009000A3010008A3010008A3010008A3010008B0
:1000A000A3010008A3010008A3010008A3010008A0
:1000B000A3010008A30100081D040008A301000813
:1000C000A3010008A3010008A3010008A301000880
:1000D000A3010008A3010008B5040008A30100085B
:1000E000A3010008A3010008A301000800F002F822
:1000F00000F03AF80AA090E8000C82448344AAF188
:100100000107DA4501D100F02FF8AFF2090EBAE885
:100110000F0013F0010F18BFFB1A43F0010318473B
:100120007C0400009C040000103A24BF78C878C109
:10013000FAD8520724BF30C830C144BF04680C60ED
:10014000704700000023002400250026103A28BF35
:1001500078C1FBD8520728BF30C148BF0B60704739
:100160001FB51FBD10B510BD00F031F81146FFF7E7
:10017000F7FF00F0F1F900F04FF803B4FFF7F2FFDA
:1001800003BC00F057F800000948804709480047C1
:10019000FEE7FEE7FEE7FEE7FEE7FEE7FEE7FEE737
:1001A000FEE7FEE704480549054A064B7047000094
:1001B000BD030008ED00000870000020700600205C
:1001C000700200207002002070477047704775462B
:1001D00000F02CF8AE4605006946534620F00700B3
:1001E000854618B020B5FFF7DDFFBDE820404FF091
:1001F00000064FF000074FF000084FF0000B21F011
:100200000701AC46ACE8C009ACE8C009ACE8C009DD
:10021000ACE8C0098D46704710B50446AFF30080C6
:100220002046BDE81040FFF7A8BF00000048704717
:100230000C00002001491820ABBEFEE7260002009A
:10024000704700BFFEE700001148006800F0400062
:1002500058B10F48406840F040000D4948600D48D3
:10026000006820F040000B4908600948006800F071
:10027000200058B10648406840F02000044948601A
:100280000448006820F4807002490860704700004C
:10029000000002400C0C01400748006800F00070AC
:1002A00040B10548406840F00070034948600120B3
:1002B000024908607047000000000240080000206A
:1002C000704700BFFEE700BFFEE77047704770470A
:1002D00010B500F001F810BD0CB5002001900090A1
:1002E0003348006840F480303149086000BF30482E
:1002F000006800F4003000900198401C01900098C4
:1003000018B90198B0F5A06FF1D12948006800F440
:10031000003010B10120009001E000200090009812
:10032000012843D12348006840F0100021490860AB
:100330000846006820F0030008600846006840F0A6
:10034000020008601A484068194948600846406839
:1003500048600846406840F480604860084640684D
:1003600020F47C1048600846406840F4E81048607B
:100370000846006840F08070086000BF0C480068C4
:1003800000F000700028F9D00948406820F0030010
:10039000074948600846406840F00200486000BFD6
:1003A0000348406800F00C000828F9D10CBD00009B
:1003B00000100240002002407047000010B51348B2
:1003C000006840F001001149086008464068104983
:1003D00008400E494860084600680E4908400B492D
:1003E00008600846006820F48020086008464068DD
:1003F00020F4FE0048604FF41F008860FFF768FF9C
:100400004FF000600449086010BD00000010024079
:100410000000FFF8FFFFF6FE08ED00E010B52148F0
:10042000008800F00100A8B11E48008820F00100FB
:100430001C4908801C480068012805D11B48006839
:10044000401C1A49086005E01948006820F48070D3
:10045000174908601348008800F0040000B31148F1
:10046000008820F004000F4908804CF2503000F062
:1004700031F80D480068012803D100200A490860BE
:100480000EE00120084908600848006828B10848C3
:10049000006840F480700649086000200349086045
:1004A00010BD0000100800400000002004000020E3
:1004B0000C0C014000B50548008800F0200020B178
:1004C00000F050F8024600F05BF800BD0044004028
:1004D00000BFFEE72A21484300E0401E0028FCD16F
:1004E000704700000848806940F0080006498861AC
:1004F0000648006820F0405004490860084600683B
:1005000040F080400860704700100240000C01403D
:100510000F48806940F008000D49886100200D49AE
:1005200008600846006840F0007008600020091D5F
:1005300008600846006840F00200086005480C307A
:10054000006840F4A07003490C3108607047000057
:1005500000100240000C0140FFF7DAFFFFF7C2FF76
:1005600000BFFEE700BF0548008800F0200000281B
:10057000F9D00248001D0088C0B270470044004016
:1005800000BF0549098801F040010029F9D002495E
:10059000091D08807047000000440040BC050008A9
:1005A000000000200C00000028010008C805000819
:1005B0000C00002064060000440100080000000058
:0805C000000000000000000033
:040000050800018965
:00000001FF
