:020000040800F2
:1000000060080020310200083D070008350700089D
:1000100039070008F5050008090B0008000000007A
:100020000000000000000000000000004107000880
:10003000F9050008000000003F070008310800082B
:100040004B0200084B0200084B0200084B0200085C
:100050004B0200084B020008FD0500083D060008A1
:1000600069060008AD060008F10600084B0200080A
:100070004B0200084B0200084B0200084B0200082C
:100080004B0200084B0200084B0200084B0200081C
:100090004B0200084B0200084B0200084B0200080C
:1000A0004B020008B50800084B0200084B0200088C
:1000B000E1080008250900084B0200084B0200086F
:1000C0004B0200084B0200084B0200084B020008DC
:1000D0004B020008B10A00084B0200084B0200085E
:1000E0004B0200084B0200084B0200084B020008BC
:1000F0004B0200084B0200084B0200084B020008AC
:100100004B0200084B0200084B0200084B0200089B
:100110004B0200084B0200084B020008FD090008D2
:100120004B0200084B0200084B0200084B0200087B
:100130004B0200084B0200084B0200084B0200086B
:100140004B0200084B0200084B0200084B0200085B
:100150004B0200084B0200084B0200084B0200084B
:100160004B0200084B0200084B0200084B0200083B
:100170004B0200084B0200084B0200084B0200082B
:100180004B0200084B02000800F002F800F041F8B2
:100190000AA090E8000C82448344AAF10107DA45E2
:1001A00001D100F036F8AFF2090EBAE80F0013F0F3
:1001B000010F18BFFB1A43F001031847CC0D0000D4
:1001C000EC0D0000103A24BF78C878C1FAD8520765
:1001D00024BF30C830C144BF04680C6070470000C1
:1001E0000023002400250026103A28BF78C1FBD840
:1001F000520728BF30C148BF0B607047642900F028
:100200007580002070471FB500F0B0FE1FBD10B50F
:1002100010BD00F0BCF91146FFF7F5FF00F0E0FC5F
:1002200000F0DAF903B4FFF7F2FF03BC00F075FC4D
:100230000948804709480047FEE7FEE7FEE7FEE77A
:10024000FEE7FEE7FEE7FEE7FEE7FEE704480549B6
:10025000054A064B704700004D0800088901000858
:10026000600200206008002060040020600400207C
:10027000704700000FB41CB5074B06AA7B446946C3
:100280000090059800F06BF90020694600F07AF9BB
:100290001CBC5DF814FB00000503000070B50446AB
:1002A00085690068C10601D5302600E02026C00718
:1002B00007D070BDD4E9012130469047206A401C28
:1002C00020626D1EF6D570BD70B504468569007854
:1002D000C00707D170BDD4E9012120209047206AD2
:1002E000401C20626D1EF6D570BD00002DE9F04166
:1002F0000646002410687529314616A510D0AFF3C4
:100300000080002802DA404213A507E031688A071E
:1003100001D512A502E0490704D511A5012401E089
:10032000AFF3008000210A2206F1240709E0B0FBA8
:10033000F2FCB0FBF2F302FB1C003030785418469C
:10034000491C0028F3D123462A463046BDE8F04137
:1003500000F0A7B8000000002D0000002B000000F6
:10036000200000002DE9F05F894604464FF0000AA6
:10037000DFF824B1FB44C0F820A02046E16888479C
:1003800000287DD0252806D0D4E901219047206A95
:10039000401C2062F1E700255F462046E16888475F
:1003A0002028064607DB312E05D2B81910F8200C9C
:1003B00008B10543F1E7A80701D525F00405C4F805
:1003C0001CA00027C4F818A02A2E09D0304600F03F
:1003D0009DFB38B304EB8708303EC8F8186019E07D
:1003E00059F8041B204604EB87029161E1688847B5
:1003F000012F064618D1E069002820DA25F02005F3
:100400001DE0D8F8180000EB800006EB4000303803
:10041000C8F818002046E1688847064600F076FBD9
:100420000028EED1012F0AD02E2E08D12046E168F7
:1004300088477F1C0646022F45F02005C4DBA069D3
:10044000002803DA404245F00105A061E80701D029
:1004500025F01005A6B1A6F14100192802D82036D2
:1004600045F400654A463146204625604D46FFF773
:10047000C5FE60B1012807D0ED1D25F0070000E0A2
:1004800007E000F1080978E705F1040975E730464F
:100490007AE7206ABDE8F09FFE0B000070477047C6
:1004A00070472DE9F0470D4699469246044600F103
:1004B00024080168880604D5E06921F01001216054
:1004C00000E00120A84201DD471B00E00027A169F0
:1004D0007A1902EB0900081AA0612078C00602D43C
:1004E0002046FFF7DBFE002608E0D4E901211AF8D8
:1004F00006009047206A401C761C20624E45F4DBC3
:100500002078C0060AD52046FFF7C8FE06E0D4E9E9
:10051000012130209047206A401C2062381EA7F13C
:100520000107F4DC07E0D4E9012118F80500904741
:10053000206A401C2062281EA5F10105F3DC20463C
:10054000FFF7C2FE2078000602D50220BDE8F08742
:100550000120FBE701694A1C02610878704700B579
:100560008FB0CDE901310021059105497944CDE9EC
:10057000031011466846FFF7F5FE0FB000BD0000FE
:10058000E5FFFFFF0A6802F8010B0A607047754635
:1005900000F02CF8AE4605006946534620F00700EF
:1005A000854618B020B5FFF751FEBDE820404FF05A
:1005B00000064FF000074FF000084FF0000B21F04D
:1005C0000701AC46ACE8C009ACE8C009ACE8C0091A
:1005D000ACE8C0098D46704710B50446AFF3008003
:1005E0002046BDE81040FFF71DBE000000487047E0
:1005F0000002002000BFFEE77047000010B50D4864
:10060000006800F00100A0B14FF47A7000F087FAA2
:100610000948006900F0010058B10748406980F0BE
:100620004000054948610348006840F00100014965
:10063000086010BD143C01400000024008480068FA
:1006400000F0800050B10648006820F080000449A6
:10065000086004480068401C0249086070470000B8
:10066000143C01401000002010B50D48006800F057
:100670000400A0B14FF47A7000F051FA0948006903
:1006800000F0040058B10848406980F08000064935
:1006900048610348006840F004000149086010BD4B
:1006A000143C0140001002400000024010B50D480B
:1006B000006800F00800A0B14FF47A7000F02FFA43
:1006C0000948006900F0080058B10848006880F047
:1006D0001000064908600348006840F0080001491E
:1006E000086010BD143C0140001002401408024094
:1006F00010B50D48006800F01000A0B14FF47A70FA
:1007000000F00DFA0948006900F0100058B10848DF
:10071000006880F02000064908600348006840F047
:1007200010000149086010BD143C01400010024057
:100730001408024000BFFEE700BFFEE770477047A5
:10074000704700000CB5002001900090344800680C
:1007500040F480303249086000BF3148006800F43E
:10076000003000900198401C0190009818B9019841
:10077000B0F5A04FF1D12A48006800F4003010B164
:100780000120009001E0002000900098012846D14F
:1007900023484030006840F08050214940310860D3
:1007A0002048006840F440401E4908601C4808305A
:1007B00000681B49083108600846006840F40040A2
:1007C00008600846006840F4A05008601648091FF9
:1007D0000860081F006840F08070091F086000BFB3
:1007E0000F48006800F000700028F9D040F2057052
:1007F0000E4908600A480830006820F003000849E4
:10080000083108600846006840F00200086000BF38
:1008100003480830006800F00C000828F8D10CBD2F
:10082000003802400070004019544007003C02406C
:1008300000204FF0E02188610348006880F010003C
:1008400001490860704700001408024010B51548BF
:10085000006840F47000134908601348006840F0D5
:1008600001001149086000200F49083108600E4856
:1008700000680E4908400C4908600D48091D0860D1
:10088000081F006820F48020091F08600020064926
:100890000C310860FFF756FF4FF0006001498039C6
:1008A000086010BD88ED00E000380240FFFFF6FE52
:1008B000103000240848008800F0010058B10648B4
:1008C000008820F00100044908800448406980F055
:1008D0008000024948617047104401400000024016
:1008E0004FF08040008A00F48060C0B14FF080403B
:1008F000008A20F004004FF0804108820846008AF8
:1009000020F4806008820846806B40F2E73188421C
:1009100005D10348008840F0100001490880704765
:100920001A0802403248008800F0010000285ED01A
:1009300030480068B0F57A7F1DD22F480068D0B9E2
:100940002B48008820F001002949088029480068C8
:10095000401E27492431086026480068401C25496C
:10096000086000202449086022480068B0F57A7FBA
:1009700001D1012008601F480068B0F57A7F1CD8BB
:100980001D480068012818D11948008820F001008E
:100990001749088017480068401E1549243108602F
:1009A00014480068401E134908600120124908607D
:1009B0001048006808B9002008600D480830008819
:1009C00020F0FF000A49083108800846008840F0FE
:1009D0006000088006481030008820F00F000449AD
:1009E000103108800846008840F0010008807047F8
:1009F000100400403C0000204000002008B52248C0
:100A0000008800F0010000283CD01F48008820F03A
:100A100001001D4908801D48006800901C480368BB
:100A20001C481DA102682148FFF724FC1F4800F064
:100A30008BFA16480068401C144908600846006894
:100A40003C280DD3084600683C21B0FBF1F201FBC5
:100A500012000E4908600E480068401C0C490860EE
:100A60000B4800683C280DD3094800683C21B0FBC6
:100A7000F1F201FB12000649086006480068401CBC
:100A80000449086008BD0000101400403400002034
:100A9000300000202C000020253032643A2530320E
:100AA000643A253032640D0A000000007000002016
:100AB00000B5124880881249124A126888541148B9
:100AC0000068401C0F49086008460068401E0C4939
:100AD000085C0A280BD1084600F036FA00210948C4
:100AE0000068801E064A1154002006490860034829
:100AF000008820F020000149088000BD001001405E
:100B0000480000200800002000BFFEE730380A2817
:100B100001D2012070470020704700BFFEE72A2164
:100B2000484300E0401E0028FCD170472948006877
:100B300040F00400274908602748006820F47060EE
:100B4000254908600846006840F4A0600860081D58
:100B5000006820F03000091D08601F480C30006854
:100B600020F470601C490C310860081F006820F4F4
:100B70007060091F086018481430006840F03000A9
:100B80001549143108601348006840F0010011490C
:100B900008601248006820F4704010490860084658
:100BA000006840F4A04008600846406820F0C0009B
:100BB00048600846C06820F47040C86008468068F5
:100BC00020F4704088600846406940F0C0004861E9
:100BD0007047000030380240000802400000024028
:100BE000FFF7A4FF00F0DEF800F00CF900F002F8C7
:100BF00000BFFEE7F0B56448006840F001006249BC
:100C000008606248006820F00C00604908600846EF
:100C1000006840F0080008600846C06820F00C003A
:100C2000C8600846006A20F0F00008620846006AC2
:100C300040F01000086254481030006840F0010095
:100C40005149103108600806008920F007000906A4
:100C500008810846008920F48040088153200885D7
:100C60004B48C862002048620846808A40F0010074
:100C700088820846008A20F001000882002008804F
:100C80000846008840F001000880002008830846DC
:100C9000008B40F4807008830846008B40F002000F
:100CA00008830846008C20F0FF0008840846008C6A
:100CB00040F0100008840846008C40F001000884D1
:100CC0000846008C40F0020008840846808A20F024
:100CD000020088820846008940F0600008810846CA
:100CE000008940F0040008810846808940F0040033
:100CF000888105200246274B19684FF6FF031940EB
:100D0000254B0B4343EA0221224B196000BF00220E
:100D100013460146C1F10706042E01D9042601E05D
:100D2000C1F1070635460E1D072E01D2002600E050
:100D3000CE1E34460126AE40761E1640A640012740
:100D4000A7407F1E1F403E43144806601C20134AE4
:100D50001168002808DA0A07140E0E4A0C3200F057
:100D60000F031B1FD45403E00A07130E0C4A13543D
:100D700000BF1C20012181404209920002F1E022C3
:100D8000C2F8001100BFF0BD303802400000024040
:100D9000FEFFFF000CED00E00000FA05440000201B
:100DA00000E400E01548006840F0010013490860C5
:100DB0001348006820F44050114908600846006854
:100DC00040F4005008600846406820F04000486049
:100DD0000846C06820F44050C8600846806820F487
:100DE000405088600846006A20F07060086208463B
:100DF000006A40F00070086270470000303802401E
:100E000000000240F0B54A48006840F0020048493E
:100E100008604848008820F00700464908800846D6
:100E2000008820F480400880532042492031088007
:100E300040F2E730091D086000203E491C3108607F
:100E40003C480C30008840F001003A490C310880E1
:100E5000081F008820F00100091F08800020354984
:100E6000083908803348001D008840F001003149EE
:100E7000091D08802F480838008840F001002D49DE
:100E8000083908800846008820F0020008800846DB
:100E9000008820F00800088005200246264B1968CB
:100EA0004FF6FF031940254B0B4343EA0221224B27
:100EB000196000BF002213460146C1F10706042E47
:100EC00001D9042601E0C1F1070635460E1D072EA3
:100ED00001D2002600E0CE1E34460126AE40761E2A
:100EE0001640A6400127A7407F1E1F403E431448DE
:100EF00006601D20124A1168002808DA0A07140E3D
:100F00000D4A0C3200F00F031B1FD45403E00A07F4
:100F1000130E0C4A135400BF1D20012181404209C9
:100F2000920002F1E022C2F8001100BFF0BD000003
:100F300040380240080400400CED00E00000FA05D3
:100F40003800002000E400E000BF00BF0649098827
:100F500001F040010029F9D00178034A9180401C3A
:100F600001780029F1D17047001001404FF0407026
:100F7000E1EE100A704704000008000000000000C5
:100F80000002000100001000A80F0008000000206F
:100F900048000000C4010008F00F000848000020CD
:100FA00018080000E0010008000000000000000038
:100FB0000000000000000000000000000000000031
:100FC0000000000000000000000000000000000021
:100FD0000000000000000000000000000000000011
:100FE0000000000001000000000000000000000000
:040000050800018965
:00000001FF
