:020000040800F2
:10000000A806002029020008FD030008F5030008E7
:10001000F9030008E30200083106000800000000B0
:100020000000000000000000000000007F04000845
:10003000E7020008000000007D0400086D050008CC
:10004000430200084302000843020008430200087C
:100050004302000843020008E902000843020008C6
:10006000290300086D030008B103000843020008DB
:10007000430200084302000843020008430200084C
:10008000430200084302000843020008430200083C
:10009000430200084302000843020008430200082C
:1000A000430200084302000843020008430200081C
:1000B000430200084302000843020008430200080C
:1000C00043020008430200084302000843020008FC
:1000D00043020008D9050008430200084302000853
:1000E00043020008430200084302000843020008DC
:1000F00043020008430200084302000843020008CC
:1001000043020008430200084302000843020008BB
:1001100043020008430200084302000843020008AB
:10012000430200084302000843020008430200089B
:10013000430200084302000843020008430200088B
:10014000430200084302000843020008430200087B
:10015000430200084302000843020008430200086B
:10016000430200084302000843020008430200085B
:10017000430200084302000843020008430200084B
:10018000430200084302000800F002F800F03CF8C7
:100190000AA090E8000C82448344AAF10107DA45E2
:1001A00001D100F031F8AFF2090EBAE80F0013F0F8
:1001B000010F18BFFB1A43F0010318474C09000058
:1001C0006C090000103A24BF78C878C1FAD85207E9
:1001D00024BF30C830C144BF04680C6070470000C1
:1001E0000023002400250026103A28BF78C1FBD840
:1001F000520728BF30C148BF0B6070471FB500F0E1
:100200007DFC1FBD10B510BD00F031F81146FFF7A1
:10021000F5FF00F06BFB00F04FF803B4FFF7F2FFBF
:1002200003BC00F057F80000094880470948004720
:10023000FEE7FEE7FEE7FEE7FEE7FEE7FEE7FEE796
:10024000FEE7FEE704480549054A064B70470000F3
:100250007105000889010008A8000020A8060020F8
:10026000A8020020A802002070477047704775461A
:1002700000F02CF8AE4605006946534620F0070012
:10028000854618B020B5FFF7DDFFBDE820404FF0F0
:1002900000064FF000074FF000084FF0000B21F070
:1002A0000701AC46ACE8C009ACE8C009ACE8C0093D
:1002B000ACE8C0098D46704710B50446AFF3008026
:1002C0002046BDE81040FFF7A8BF00000048704777
:1002D0004400002001491820ABBEFEE726000200C2
:1002E000704700BFFEE7704710B50D48006800F08A
:1002F0000100A0B14FF47A7000F09CF90948006940
:1003000000F0010058B10748406980F040000549FD
:1003100048610348006840F001000149086010BDD1
:10032000143C01400000024010B50D48006800F088
:100330000400A0B14FF47A7000F07CF9094800691C
:1003400000F0040058B10848406980F08000064978
:1003500048610348006840F004000149086010BD8E
:10036000143C0140001002400000024010B50D484E
:10037000006800F00800A0B14FF47A7000F05AF95C
:100380000948006900F0080058B10848006880F08A
:100390001000064908600348006840F00800014961
:1003A000086010BD143C01400010024014080240D7
:1003B00010B50D48006800F01000A0B14FF47A703D
:1003C00000F038F90948006900F0100058B10848F9
:1003D000006880F02000064908600348006840F08B
:1003E00010000149086010BD143C0140001002409B
:1003F0001408024000BFFEE700BFFEE7704700F0B0
:100400001F02012191404209920002F1E022C2F84C
:1004100000117047F0B503460C4603F00701C1F127
:100420000700042801D9042001E0C1F107000646B5
:10043000081D072801D2002000E0C81E0546012043
:10044000B040401E2040A8400127AF407F1E17400B
:100450003843F0BD10B5002807DA0A07140E054A24
:1004600000F00F031B1FD45403E00A07130E024AC7
:10047000135410BD18ED00E000E400E07047704731
:100480000CB50020019000903448006840F48030A2
:100490003249086000BF3148006800F40030009025
:1004A0000198401C0190009818B90198B0F5A04F30
:1004B000F1D12A48006800F4003010B1012000900A
:1004C00001E0002000900098012846D123484030E8
:1004D000006840F0805021494031086020480068A1
:1004E00040F440401E4908601C48083000681B4921
:1004F000083108600846006840F40040086008467B
:10050000006840F4A05008601648091F0860081FE2
:10051000006840F08070091F086000BF0F48006845
:1005200000F000700028F9D040F205700E49086014
:100530000A480830006820F00300084908310860C4
:100540000846006840F00200086000BF0348083019
:10055000006800F00C000828F8D10CBD00380240FB
:100560000070004019544007003C024070470000F2
:1005700010B51548006840F470001349086013482E
:10058000006840F001001149086000200F4908315F
:1005900008600E4800680E4908400C4908600D4884
:1005A000091D0860081F006820F48020091F0860EA
:1005B000002006490C310860FFF762FF4FF0006031
:1005C00001498039086010BD88ED00E00038024024
:1005D000FFFFF6FE1030002400B512488088124953
:1005E000124A1268885411480068401C0F4908607C
:1005F00008460068401E0C49085C0A280BD10846D2
:1006000000F06AFA002109480068801E064A115469
:100610000020064908600348008820F020000149B6
:10062000088000BD001001401C00002008000020D0
:1006300000BFFEE72A21484300E0401E0028FCD10D
:10064000704700001C48006840F001001A4908602B
:100650001A48006820F0030018490860084600683E
:1006600008600846C06820F00300C86012480068AF
:1006700040F01000104908601148006820F0F000B8
:100680000F4908600846006808600846C06820F006
:10069000F000C8600848006840F010000649086093
:1006A0000748006820F44070054908600846C068A3
:1006B00020F47060C860704730380240000002408B
:1006C0000010024010B55348006840F48040514982
:1006D00008605148006820F00F004F490860084644
:1006E000006820F47F4008600846006840F48840B5
:1006F000086049480838C06820F00F0146480838AB
:10070000C160C06840F0040143480838C1604348F4
:10071000006820F0010041490860081F006840F0AF
:100720000100091F08600846006820F01C000860EE
:10073000081D006840F01C00091D08603748083893
:10074000006820F001003549083908600846006853
:1007500020F01C0008603148001D006820F0FF00F8
:100760002E49091D08602D480C38006840F0010032
:100770002A490C3908600846006840F01C000860EF
:1007800005200246264B19684FF6FF031940254BFA
:100790000B4343EA0221224B196000BF002211469D
:1007A000FFF738FE20490860084601680620FFF779
:1007B00051FE0620FFF723FE012211460520FFF718
:1007C00029FE1A490860084601680820FFF742FE22
:1007D0000820FFF714FE022211460520FFF71AFE3B
:1007E00013490860084601680920FFF733FE092015
:1007F000FFF705FE032211460520FFF70BFE0D490A
:100800000860084601680A20FFF724FE0A20FFF767
:10081000F6FD10BD44380240083801400C3C014050
:100820000CED00E00000FA050C0000201000002094
:1008300014000020180000202948006840F004003F
:10084000274908602748006820F47060254908603F
:100850000846006840F4A0600860081D006820F0A9
:100860003000091D08601F480C30006820F47060DB
:100870001C490C310860081F006820F47060091FD3
:10088000086018481430006840F0300015491431F1
:1008900008601348006840F00100114908601248E0
:1008A000006820F47040104908600846006840F471
:1008B000A04008600846406820F0C0004860084634
:1008C000C06820F47040C8600846806820F470401A
:1008D00088600846406940F0C000486170470000E9
:1008E000303802400008024000000240FFF7A4FF39
:1008F000FFF7A8FE4FF4E13000F004F8FFF7E2FE46
:1009000000BFFEE72DE9F0470346DFED6B0AB0EECE
:10091000600A002200276948006840F0010067492A
:1009200008606748006820F4701065490860084650
:10093000006840F4201008600846406A00F47F61B7
:100940005F484162406A40F4EE615D484162406840
:1009500020F400705A4948600846C06820F47010BE
:10096000C8600846806820F44020886053481430EE
:10097000006840F0100051491431086051488089E6
:1009800000F00C004F4988810846808940F00C0037
:1009900088810846808940F4005088810846008A92
:1009A00020F440500882180100EE900AF8EE600A28
:1009B0009FED451AC1EE201AB0EE610AFCEEC00AA6
:1009C00010EE900A82B200EE902AF8EE600A30EE45
:1009D000601AF3EE001AF6EE000A41EE210AFCEE70
:1009E000E00A10EE900A87B247EA021008814FF041
:1009F000000C05200446354D29684FF6FF052940B7
:100A0000334D0D4345EA0421304D296000BF0224D7
:100A100025460146C1F10709B9F1040F02D94FF08B
:100A2000040901E0C1F10709C84601F10409B9F15F
:100A3000070F02D24FF0000901E0A1F103094E4671
:100A40004FF0010909FA08F9A9F1010909EA0409B5
:100A500009FA06F94FF0010A0AFA06FAAAF1010AA0
:100A60000AEA050A49EA0A09CC4625206146002817
:100A700008DA0C07260E154C0C3400F00F052D1F5C
:100A8000665503E00C07250E124C255400BF2520A7
:100A900000F01F040121A1404409A40004F1E02456
:100AA000C4F8001100BF0748808940F020000549C4
:100AB0008881BDE8F0870000000000003038024067
:100AC0000000024000100140A037A04C0CED00E0F7
:100AD0000000FA0500E400E00AE000BF06490988CA
:100AE00001F040010029F9D00178034A9180401CAF
:100AF00001780A29F1D17047001001404FF0407091
:100B0000E1EE100A70470000280B000800000020EA
:100B10001C000000C4010008440B00081C00002059
:100B20008C060000E001000800000000000000004A
:100B300000000000000000000000000000000000B5
:040B400000000000B1
:040000050800018965
:00000001FF
